:020000040800F2
:1000000000000220759100087D71000885710008CC
:100010008D710008957100089D71000800000000B6
:10002000000000000000000000000000A5710008B2
:10003000B371000800000000C1710008CF71000812
:10004000C5910008C5910008C5910008C591000838
:10005000C5910008C5910008C5910008C591000828
:10006000C5910008C5910008C5910008DD71000820
:10007000F171000805720008C591000819720008A6
:100080002D720008C5910008C5910008C5910008AF
:10009000C5910008C5910008C5910008C5910008E8
:1000A000C5910008C5910008C5910008C5910008D8
:1000B000C5910008C5910008C5910008C5910008C8
:1000C000C5910008C5910008C5910008C5910008B8
:1000D000C5910008C591000841720008D57200085A
:1000E000C5910008C5910008C5910008C591000898
:1000F000C5910008C5910008C59100086973000802
:10010000C5910008C5910008C5910008C591000877
:100110007D73000811740008C5910008C59100089E
:10012000A5740008B9740008CD740008E1740008D3
:10013000C59100080000000000000000C591000803
:10014000C5910008C5910008C5910008C591000837
:10015000C5910008C5910008C5910008C591000827
:10016000C5910008C5910008C5910008C591000817
:10017000C5910008C59100080000000000000000C3
:08018000C5910008C5910008BB
:1001900010B5054C237833B9044B13B10448AFF3C1
:1001A00000800123237010BDF80100200000000032
:1001B000E854010808B5034B1BB103490348AFF3EA
:1001C000008008BD00000000FC010020E854010888
:1001D00010F8012B11F8013B012A28BF9A42F7D0F1
:1001E000D01A70470000000000000000000000006E
:1001F00001F0FF01102A2BDB10F0070F08D010F8D8
:10020000013B013A8B422DD010F0070F42B3F6D1DB
:10021000F0B441EA012141EA014122F007047FF0F4
:1002200000070023F0E80256083C85EA010586EA4B
:10023000010685FA47F5A3FA87F586FA47F6A5FA87
:1002400087F68EB9EED1F0BC01F0FF0102F0070293
:1002500032B110F8013B013A83EA010313B1F8D13E
:100260000020704701387047002D06BF354603381F
:10027000073815F0010F07D1013015F4807F02BF58
:10028000013015F4C03F0130F0BC0138704700BFA9
:10029000034613F8012B002AFBD1181A01387047C6
:1002A00081F0004102E000BF83F0004330B54FEA27
:1002B00041044FEA430594EA050F08BF90EA020F94
:1002C0001FBF54EA000C55EA020C7FEA645C7FEA27
:1002D000655C00F0E2804FEA5454D4EB5555B8BF4A
:1002E0006D420CDD2C4480EA020281EA030382EABB
:1002F000000083EA010180EA020281EA0303362D4D
:1003000088BF30BD11F0004F4FEA01314FF4801C1F
:100310004CEA113102D0404261EB410113F0004F31
:100320004FEA03334CEA133302D0524263EB4303E8
:1003300094EA050F00F0A780A4F10104D5F1200E86
:100340000DDB02FA0EFC22FA05F2801841F10001E1
:1003500003FA0EF2801843FA05F359410EE0A5F1B5
:1003600020050EF1200E012A03FA0EFC28BF4CF0E6
:10037000020C43FA05F3C01851EBE37101F000459C
:1003800007D54FF0000EDCF1000C7EEB00006EEBA9
:100390000101B1F5801F1BD3B1F5001F0CD3490833
:1003A0005FEA30004FEA3C0C04F101044FEA44528A
:1003B00012F5800F80F09A80BCF1004F08BF5FEA11
:1003C000500C50F1000041EB045141EA050130BDF1
:1003D0005FEA4C0C404141EB0101013C28BFB1F503
:1003E000801FE9D291F0000F04BF01460020B1FA4E
:1003F00081F308BF2033A3F10B03B3F120020CDA21
:100400000C3208DD02F1140CC2F10C0201FA0CF0FE
:1004100021FA02F10CE002F11402D8BFC2F1200C63
:1004200001FA02F120FA0CFCDCBF41EA0C01904019
:10043000E41AA2BF01EB0451294330BD6FEA040462
:100440001F3C1CDA0C340EDC04F11404C4F120024D
:1004500020FA04F001FA02F340EA030021FA04F35F
:1004600045EA030130BDC4F10C04C4F1200220FAB6
:1004700002F001FA04F340EA0300294630BD21FAF4
:1004800004F0294630BD94F0000F83F4801306BFBA
:1004900081F480110134013D4EE77FEA645C18BFAE
:1004A0007FEA655C29D094EA050F08BF90EA020F45
:1004B00005D054EA000C04BF1946104630BD91EA3D
:1004C000030F1EBF0021002030BD5FEA545C05D140
:1004D0004000494128BF41F0004130BD14F580047F
:1004E0003CBF01F5801130BD01F0004545F0FE41F3
:1004F00041F470014FF0000030BD7FEA645C1ABF28
:10050000194610467FEA655C1CBF0B46024650EA5E
:10051000013406BF52EA033591EA030F41F400218A
:1005200030BD00BF90F0000F04BF0021704730B510
:100530004FF4806404F132044FF000054FF00001E5
:1005400050E700BF90F0000F04BF0021704730B5A6
:100550004FF4806404F1320410F0004548BF40427B
:100560004FF000013EE700BF42004FEAE2014FEAD0
:1005700031014FEA02701FBF12F07F4393F07F4FAB
:1005800081F06051704732F07F4208BF704793F0AE
:100590007F4F04BF41F40021704730B54FF46074C1
:1005A00001F0004521F000411CE700BF50EA0102C4
:1005B00008BF704730B54FF000050AE050EA01026D
:1005C00008BF704730B511F0004502D5404261EBDD
:1005D00041014FF4806404F132045FEA915C3FF41E
:1005E000D8AE4FF003025FEADC0C18BF03325FEABB
:1005F000DC0C18BF033202EBDC02C2F1200300FA6C
:1006000003FC20FA02F001FA03FE40EA0E0021FA90
:1006100002F11444BDE600BF70B54FF0FF0C4CF47E
:10062000E06C1CEA11541DBF1CEA135594EA0C0F30
:1006300095EA0C0F00F0DEF82C4481EA030621EA6B
:100640004C5123EA4C5350EA013518BF52EA0335A6
:1006500041F4801143F4801338D0A0FB02CE4FF058
:100660000005E1FB02E506F00042E0FB03E54FF088
:100670000006E1FB03569CF0000F18BF4EF0010E80
:10068000A4F1FF04B6F5007F64F5407404D25FEA7C
:100690004E0E6D4146EB060642EAC62141EA55512F
:1006A0004FEAC52040EA5E504FEACE2EB4F1FD0C71
:1006B00088BFBCF5E06F1ED8BEF1004F08BF5FEAEF
:1006C000500E50F1000041EB045170BD06F00046A1
:1006D00046EA010140EA020081EA0301B4EB5C044E
:1006E000C2BFD4EB0C0541EA045170BD41F4801146
:1006F0004FF0000E013C00F3AB8014F1360FDEBF6B
:10070000002001F0004170BDC4F10004203C35DA46
:100710000C341BDC04F11404C4F1200500FA05F3C9
:1007200020FA04F001FA05F240EA020001F000426A
:1007300021F0004110EBD37021FA04F642EB0601E0
:100740005EEA430E08BF20EAD37070BDC4F10C040A
:10075000C4F1200500FA04F320FA05F001FA04F2CE
:1007600040EA020001F0004110EBD37041F10001BA
:100770005EEA430E08BF20EAD37070BDC4F12005C5
:1007800000FA05F24EEA020E20FA04F301FA05F22D
:1007900043EA020321FA04F001F0004121FA04F2D5
:1007A00020EA020000EBD3705EEA430E08BF20EAA5
:1007B000D37070BD94F0000F0FD101F000464000DF
:1007C00041EB010111F4801F08BF013CF7D041EA61
:1007D000060195F0000F18BF704703F00046520065
:1007E00043EB030313F4801F08BF013DF7D043EA36
:1007F0000603704794EA0C0F0CEA135518BF95EAEC
:100800000C0F0CD050EA410618BF52EA4306D1D172
:1008100081EA030101F000414FF0000070BD50EA91
:10082000410606BF1046194652EA430619D094EA1B
:100830000C0F02D150EA013613D195EA0C0F05D105
:1008400052EA03361CBF104619460AD181EA030159
:1008500001F0004141F0FE4141F470014FF0000011
:1008600070BD41F0FE4141F4780170BD70B54FF0AC
:10087000FF0C4CF4E06C1CEA11541DBF1CEA13552C
:1008800094EA0C0F95EA0C0F00F0A7F8A4EB05040E
:1008900081EA030E52EA03354FEA013100F0888005
:1008A0004FEA03334FF0805545EA131343EA1263CE
:1008B0004FEA022245EA111545EA10654FEA002683
:1008C0000EF000419D4208BF964244F1FD0404F53C
:1008D000407402D25B084FEA3202B61A65EB030598
:1008E0005B084FEA32024FF480104FF4002CB6EB55
:1008F000020E75EB030E22BFB61A754640EA0C00D5
:100900005B084FEA3202B6EB020E75EB030E22BF14
:10091000B61A754640EA5C005B084FEA3202B6EB55
:10092000020E75EB030E22BFB61A754640EA9C0014
:100930005B084FEA3202B6EB020E75EB030E22BFE4
:10094000B61A754640EADC0055EA060E18D04FEAA2
:10095000051545EA16754FEA06164FEAC30343EA42
:1009600052734FEAC2025FEA1C1CC0D111F4801F0F
:100970000BD141EA00014FF000004FF0004CB6E708
:1009800011F4801F04BF01430020B4F1FD0C88BFA7
:10099000BCF5E06F3FF6AFAEB5EB030C04BFB6EBB2
:1009A000020C5FEA500C50F1000041EB045170BDA5
:1009B0000EF0004E4EEA113114EB5C04C2BFD4EBD2
:1009C0000C0541EA045170BD41F480114FF0000E56
:1009D000013C90E645EA060E8DE60CEA135594EAD2
:1009E0000C0F08BF95EA0C0F3FF43BAF94EA0C0FD5
:1009F0000AD150EA01347FF434AF95EA0C0F7FF44A
:100A000025AF104619462CE795EA0C0F06D152EA9D
:100A100003353FF4FDAE1046194622E750EA410681
:100A200018BF52EA43067FF4C5AE50EA41047FF492
:100A30000DAF52EA43057FF4EBAE12E74FF0FF3CF7
:100A400006E000BF4FF0010C02E000BF4FF0010CC8
:100A50004DF804CD4FEA410C7FEA6C5C4FEA430C41
:100A600018BF7FEA6C5C1BD001B050EA410C0CBF90
:100A700052EA430C91EA030F02BF90EA020F0020F2
:100A8000704710F1000F91EA030F58BF994208BF59
:100A900090422CBFD8176FEAE37040F00100704716
:100AA0004FEA410C7FEA6C5C02D150EA013C07D16D
:100AB0004FEA430C7FEA6C5CD6D152EA033CD3D0B8
:100AC0005DF8040B704700BF8446104662468C46B2
:100AD0001946634600E000BF01B5FFF7B7FF0028E5
:100AE00048BF10F1000F01BD4DF808EDFFF7F4FF0E
:100AF0000CBF012000205DF808FB00BF4DF808ED99
:100B0000FFF7EAFF34BF012000205DF808FB00BFBB
:100B10004DF808EDFFF7E0FF94BF012000205DF8DD
:100B200008FB00BF4DF808EDFFF7CEFF94BF012092
:100B300000205DF808FB00BF4DF808EDFFF7C4FF8B
:100B400034BF012000205DF808FB00BF4FEA410CD4
:100B50007FEA6C5C02D150EA013C0AD14FEA430CB7
:100B60007FEA6C5C02D152EA033C02D14FF00000F4
:100B700070474FF0010070474FEA410212F5001232
:100B800015D211D56FF47873B3EB625212D94FEAD4
:100B9000C12343F0004343EA505311F0004F23FABE
:100BA00002F018BF404270474FF00000704750EA13
:100BB000013005D111F0004008BF6FF000407047D0
:100BC0004FF00000704700BF4A0011D212F500122A
:100BD00011D20DD56FF47873B3EB62520ED44FEA95
:100BE000C12343F0004343EA505323FA02F0704715
:100BF0004FF00000704750EA013002D14FF0FF3053
:100C000070474FF0000070474FEA4102B2F1E043F5
:100C100024BFB3F5001CDCF1FE5C0DD901F0004CE3
:100C20004FEAC0024CEA5070B2F1004F40EB830033
:100C300008BF20F00100704711F0804F21D113F15F
:100C40003872BCBF01F00040704741F480114FEA98
:100C50005252C2F11802C2F1200C10FA0CF320FA21
:100C600002F018BF40F001004FEAC1234FEAD3233E
:100C700003FA0CFC40EA0C0023FA02F34FEA4303A8
:100C8000CCE77FEA625307D150EA01331EBF4FF031
:100C9000FE4040F44000704701F0004040F0FE404C
:100CA00040F40000704700BF53B94AB9002908BF9B
:100CB00000281CBF4FF0FF314FF0FF3000F0A0B90B
:100CC000ADF1080C6DE904CE00F03CF8DDF804E06D
:100CD000DDE9022304B0704738B500220023044642
:100CE0000D46FFF70BFF28B920462946BDE83840DE
:100CF00000F00AB8204605F1004100F005F8404236
:100D000061EB410138BD00BFD0B50C4B0022064657
:100D10000F46FFF781FCFFF757FF0446FFF702FC81
:100D2000074B0022FFF778FC02460B463046394657
:100D3000FFF7BAFAFFF748FF2146D0BD0000F03DAB
:100D40000000F0412DE9F047089D0C46002B4ED1E4
:100D500094468C458646B2FA82F262D94AB1C2F113
:100D60002003914020FA03F30CFA02FC194300FA25
:100D700002FE4FEA1C471FFA8CF6B1FBF7F44FEA6C
:100D80001E4307FB141143EA014304FB06F1994299
:100D90000AD91CEB030304F1FF3080F01281994261
:100DA00040F20F81023C6344591A1FFA8EF3B1FBE3
:100DB000F7F007FB101143EA014300FB06F69E42E1
:100DC0000AD91CEB030300F1FF3180F0FC809E4246
:100DD00040F2F980634402389B1B40EA0440002142
:100DE0001DB1D3400022C5E90032BDE8F0878B4237
:100DF00005D90DB1C5E9000100210846F5E7B3FAB0
:100E000083F1002946D1A34202D39042C0F0F08082
:100E1000861A64EB03030120002DE6D0C5E90063C8
:100E2000E3E7002A40F09080A1EB0C044FEA1C4855
:100E30001FFA8CF70121B4FBF8F64FEA1E4308FBBA
:100E4000164443EA044307FB06F0984208D91CEB1A
:100E5000030306F1FF3402D2984200F2CD80264609
:100E60001C1A1FFA8EF3B4FBF8F008FB104443EA97
:100E7000044300FB07F79F4208D91CEB030300F172
:100E8000FF3402D29F4200F2B0802046DB1B40EAD2
:100E90000640A5E7C1F120068B4022FA06F71F4362
:100EA00020FA06FC04FA01F343EA0C03F44000FACA
:100EB00001F8380C4FEA1349B4FBF0FE1FFA87FC27
:100EC00000FB1E4449EA04440EFB0CF9A14502FA5A
:100ED00001F20AD93C190EF1FF3A80F08480A14555
:100EE00040F28180AEF1020E3C44A4EB09041FFAEB
:100EF00083F9B4FBF0F300FB134449EA044403FB19
:100F00000CFCA44507D93C1903F1FF3067D2A44576
:100F100065D9023B3C4443EA0E40A0FB0293A4EB9C
:100F20000C049C42CE469C4651D34ED055B1B8EBF2
:100F30000E0364EB0C0404FA06F6CB401E43CC40CF
:100F4000C5E90064002150E7C2F1200320FA03F153
:100F50000CFA02FC24FA03F394400C434FEA1C48B9
:100F600000FA02FE1FFA8CF7B3FBF8F008FB103111
:100F7000230C43EA014300FB07F1994208D91CEB1B
:100F8000030300F1FF362CD299422AD90238634478
:100F90005B1AA4B2B3FBF8F108FB113344EA034433
:100FA00001FB07F3A34208D91CEB040401F1FF364F
:100FB00013D2A34211D902396444E41A41EA004130
:100FC00039E70446F0E6084606E7C845AED2B9EB75
:100FD000020E63EB070C0138A8E73146EDE7034644
:100FE00099E73046D4E7D6467FE7634402384DE7B9
:100FF0000646234608460FE7023E634430E700BF3B
:10100000704700BF80B400AF2B4B30221A802B4BAF
:10101000002283F86F23294B002283F86E23274B8D
:10102000002283F87123254B4FF00002C3F8C4233C
:10103000224B0022A3F8B823204B0022A3F8BA23A6
:101040001E4B0022C3F890231C4B0022C3F89423AC
:101050001A4B002283F8AA23184B0022A3F8A623D8
:10106000164B0022A3F8AE23144B002283F8A823CA
:10107000124B0022A3F8A423104B002283F8A923CB
:101080000E4B002283F8B2230C4B002283F8B023CE
:101090000A4B0022A3F8AC23084B0022A3F8AC2390
:1010A000074B30221A80054B30221A8000BFBD4604
:1010B0005DF8047B704700BF28090020D805002098
:1010C000F605002080B500AF00F07CF800F01AFCB7
:1010D0000123184680BD000080B500AF4FF4804169
:1010E000314809F05BFD03461A46304B1A602F4B1E
:1010F0001B68002B02D12E4B01221A602C4B1B685F
:10110000012B0BD1294B1B68012B07D1284B022245
:101110001A60284B1B680133264A1360254B196857
:10112000254B83FB01235A10CB17D21A13469B0081
:101130001344CA1A002A02D11E4B02221A601D4B08
:101140001B6803F00303002B03D11C4B01221A6020
:1011500025E0184B1B6803F00103002B09D106F0B2
:101160002FFE0346184607F03FF8144B00221A6082
:1011700015E0104B1968124B83FB0132CB17D21AC2
:1011800013465B001344CA1A002A08D106F022FF56
:101190000346184607F09CFA084B00221A60054BDC
:1011A0001B68184680BD00BF0004024014020020E6
:1011B000180200200000002067666666D405002043
:1011C0005655555580B500AF0B4B1B78012B10D1F0
:1011D00000F018F84FF48072002108480EF032FB3E
:1011E000054B00221A704FF48072044904480BF03A
:1011F00083F90123184680BDC40A0020C4090020D9
:10120000900B00202DE9B04F2DED108BADF5267D14
:1012100016AF9F499F480EF081F99F499C480EF0F8
:1012200087FB0346002B00F06B829C4998480EF028
:101230007FFB0346002B00F06382994994480EF02F
:1012400077FB0346002B00F05B82964990480EF036
:101250006FFB0346002B00F0538293480EF0C6F953
:1012600092498B480EF008FB0346C7F83C32ACE0CD
:101270008F49D7F83C020EF05BFB0346002B06D0EB
:101280008C4A8D49D7F83C020EF0D8F996E08B498C
:10129000D7F83C020EF04CFB0346002B06D0884AE0
:1012A0008849D7F83C020EF0C9F987E08649D7F89B
:1012B0003C020EF03DFB0346002B06D0834A8449D6
:1012C000D7F83C020EF0BAF978E08249D7F83C0230
:1012D0000EF02EFB0346002B06D07F4A7F49D7F83D
:1012E0003C020EF0ABF969E07D49D7F83C020EF004
:1012F0001FFB0346002B06D07A4A7B49D7F83C02F5
:101300000EF09CF95AE07949D7F83C020EF010FB38
:101310000346002B06D0764A7649D7F83C020EF0F9
:101320008DF94BE07449D7F83C020EF001FB0346FF
:10133000002B1DD007F50C7307F50D726F49D7F818
:101340003C020EF07BF90346022B37D1D7F834323A
:10135000002B33DDD7F83432062B2FDCD7F83432AC
:10136000013BD7F830226649DB000B441A6025E0C8
:101370006449D7F83C020EF0DBFA0346002B1DD07F
:1013800007F50A7307F50B725F49D7F83C020EF0B8
:1013900055F90346022B11D1D7F82C32002B0DDD65
:1013A000D7F82C32062B09DCD7F82C32013BD7F8C2
:1013B00028225349DB000B4404331A603B490020C8
:1013C0000EF05AFA0346C7F83C32D7F83C32002BED
:1013D0007FF44EAF4D4B01221A70364BD3ED007A9D
:1013E000344B93ED017A334BD3ED026A3A4B93EDD4
:1013F000006A394BD3ED015AF0EE652AB0EE462A69
:10140000DFED431AB0EE661AF0EE470AB0EE670A57
:10141000284805F0ABF9304B9B683E4AC2F81033C0
:10142000244B1B681846FFF79FF8C7E90201214BC0
:101430005B681846FFF798F804460D461D4B9B68FD
:101440001846FFF791F880468946234B1B681846DB
:10145000FFF78AF882468B461F4B5B681846FFF7FA
:1014600083F802460B462B49D1F810130891CDE9B9
:101470000623CDE904ABCDE90289CDE90045D7E9E2
:10148000022325480EF04AF80023C7F83832A6E0B8
:10149000C409002000550108085501080C55010831
:1014A00010550108145501081C5501082055010864
:1014B00024550108A00900202855010830550108CD
:1014C000A4090020345501083C550108A809002052
:1014D00040550108485501084C02002050550108AC
:1014E0005855010850020020605501086855010850
:1014F0005402002070550108785501087C550108F8
:101500001C020020885501088C550108C50A0020DE
:1015100000000000D805002098550108D7F83822AF
:1015200013461B019B1A5B005833A54A13449C1CAD
:10153000A44AD7F83832DB00134404331B6818463A
:10154000FFF712F802460B469F4920460EF056F868
:10155000D7F8382213461B019B1A5B0003F58473EE
:10156000974A13449C1D974AD7F83832DB0013443E
:101570001B681846FEF7F8FF02460B4692492046C4
:101580000EF03CF8D7F8382213461B019B1A5B007B
:1015900058338B4A1344023318460CF073F955EC58
:1015A000104BD7F8382213461B019B1A5B0003F53A
:1015B0008473834A1344063318460CF063F9B0EE83
:1015C000407AF0EE607A8DED007B22462B467F4814
:1015D0000DF0A4FFD7F838320133C7F83832D7F806
:1015E0003832052B9ADD7A480EF000F807F51073B3
:1015F000A3F50C7300221A6004334FF4FE7200212D
:1016000018460EF01FF973480CF03CF955EC104BDE
:1016100071480CF037F9B0EE408AF0EE608A6F48FE
:101620000CF030F9B0EE409AF0EE609A6C480CF095
:1016300029F9B0EE40AAF0EE60AA6A480CF022F94F
:10164000B0EE40BAF0EE60BA66480CF01BF9B0EEAE
:1016500040CAF0EE60CA64480CF014F9B0EE40DA0B
:10166000F0EE60DA61480CF00DF9B0EE40EAF0EE11
:1016700060EA5F480CF006F9B0EE40FAF0EE60FA6E
:101680005C480CF0FFF887ED020B5B480CF0FAF8B1
:1016900087ED000B59480CF0F5F8B0EE407AF0EE0B
:1016A000607A07F110008DED147B97ED007B8DEDD6
:1016B000127B97ED027B8DED107B8DED0EFB8DED9A
:1016C0000CEB8DED0ADB8DED08CB8DED06BB8DEDC2
:1016D00004AB8DED029B8DED008B22462B464849D5
:1016E0000DF08CFF07F110031846FEF7D1FD0346FD
:1016F0009AB207F11001FF2342480AF04DFE55E06F
:10170000414942480EF014F90346002B39D04049B4
:101710003E480EF00DF90346002B32D03D493B48C0
:101720000EF006F90346002B2BD007F5047319467B
:10173000364800F081F80346002B1ED1D7E98423F8
:1017400035480DF0EBFED7E9862334480DF0E6FE70
:10175000D7E9882332480DF0E1FED7E98423184900
:10176000C1E9CE23D7E986231549C1E9BC23D7E9CE
:1017700088231349C1E9BE2318E02A480DF036FF3B
:1017800014E0294921480EF0D3F80346002B03D07A
:10179000264B01221A600AE025491C480EF0C8F8C1
:1017A0000346002B03D0234B02221A7000BF00BF58
:1017B00007F51077BD46BDEC108BBDE8B08F00BFBC
:1017C000D80500201C020020C0550108C45501089E
:1017D0001C55010832060020E606002050060020B5
:1017E000040700206E0600208C0600204007002021
:1017F000AA0600205E070020C80600207C07002003
:10180000D8550108680C002090560108C409002032
:1018100098560108A0560108A8560108B4560108B8
:10182000CC560108E456010804570108C80A0020F4
:101830001C570108C50A002080B59CB002AF786033
:1018400039600023BB6407F14C0300221A605A6020
:101850009A60DA601A615A619A610023BB6207F1EB
:101860002C0300221A605A609A60DA601A615A6189
:101870009A610023BB6007F10C0300221A605A60D2
:101880009A60DA601A615A619A6107F1280107F1DA
:10189000480207F1080300930B46194978680DF0D8
:1018A000CDFE0346032B02D04FF0FF3324E007F1B7
:1018B000480318460BF0E6FFB0EE407AF0EE607A8F
:1018C0003B6883ED007B07F1280318460BF0DAFF35
:1018D000B0EE407AF0EE607A3B6883ED027B07F170
:1018E000080318460BF0CEFFB0EE407AF0EE607AB7
:1018F0003B6883ED047B002318466837BD4680BDF6
:101900002857010880B500AF114B1B78012B1CD163
:10191000104911480DF002FE0E4800F021F84FF476
:10192000807200210B480DF08DFF094B00221A70C8
:10193000084B9BB21A46074908480AF0DDFD4FF4F0
:101940008072044905480AF0B2FD0123184680BDA3
:10195000C60A0020D404002078570108680C002033
:10196000F0B5CDB004AF07F59073A3F58E73186092
:1019700007F59073A3F58E73186801F0D1F8C7F8D6
:101980001C01D7F81C31002B0ED100F059FBC7F811
:101990000801D7F80831002B00F0F880D7F80811BB
:1019A0007F480DF0BBFDF1E07E49D7F81C0101F046
:1019B00021FCC7F81801D7F8180101F02AFC0346EA
:1019C000002B5CD0D7F8180101F074FB0346002B04
:1019D00055DD0021D7F8180101F0B0FBC7F814015C
:1019E000D7F8140101F02CFC0346002B47D06E49B8
:1019F000D7F8140101F0FEFB0346D3E9060166A304
:101A0000D3E90023FEF732FF02460B466749C1E9DE
:101A1000BC236749D7F8140101F0ECFB0346D3E976
:101A200006015DA3D3E90023FEF720FF02460B4623
:101A30005E49C1E9BE235F49D7F8140101F0DAFB22
:101A40000346D3E906014FF000025B4BFEF70EFFA1
:101A500002460B465549C1E9CE23544BD3E9BC4558
:101A6000524BD3E9BE235149D1E9CE01CDE9020160
:101A7000CDE9002322462B4650480DF04FFD50493A
:101A8000D7F81C0101F0B6FBC7F81001D7F8100118
:101A900001F0BFFB0346002B45D0D7F8100101F041
:101AA00009FB0346002B3EDD0021D7F8100101F0B1
:101AB00045FBC7F80C01D7F80C0101F0C1FB034648
:101AC000002B30D03849D7F80C0101F093FB0346C6
:101AD000D3E9060130A3D3E90023FEF7C7FE02468F
:101AE0000B463249C1E9C0233149D7F80C0101F056
:101AF00081FB0346D3E9060127A3D3E90023FEF7C0
:101B0000B5FE02460B462949C1E9C223274BD3E95A
:101B1000C001264BD3E9C223CDE9002302460B4680
:101B200028480DF0FBFC284B1B680133264A136044
:101B3000254B1B680E2B24DD1C4BD3E9CE451B4BDC
:101B4000D3E9BC231949D1E9BE0107F10806CDE963
:101B50000201CDE9002322462B461C4930460DF0F8
:101B60004DFD07F108031846FEF792FB03469AB2B3
:101B700007F10801FF2316480AF00EFC124B002261
:101B80001A60D7F81C0100F0EBFA00E000BF07F57F
:101B90009277BD46F0BD00BF00000000D012634147
:101BA000845701089857010888550108D805002076
:101BB000A0570108A457010800005940A857010880
:101BC000DC570108E4570108580200205857010863
:101BD000900B002080B584B000AF3B4600221A6015
:101BE0005A609A60DA60214B214A1A601F4B00222A
:101BF0005A601E4B00229A601C4B01221A611B4B3B
:101C000000221A76194B002283F82020174B00225D
:101C1000DA62164B174A9A62144B0022DA60134BB1
:101C20000122DA61114B012283F830200F4B01228F
:101C30005A610E4807F05EFB0346002B01D002F00C
:101C4000B9FC08233B6001237B600023BB603B465B
:101C50001946064807F0FCFC0346002B01D002F0B1
:101C6000A9FC00BF1037BD4680BD00BF5C0200204C
:101C7000002001400100000F80B584B000AF3B465A
:101C800000221A605A609A60DA60214B214A1A6079
:101C90001F4B00225A601E4B00229A601C4B0022F0
:101CA0001A611B4B00221A76194B002283F8202060
:101CB000174B0022DA62164B174A9A62144B002225
:101CC000DA60134B0122DA61114B002283F83020D5
:101CD0000F4B01225A610E4807F00CFB0346002B04
:101CE00001D002F067FC09233B6001237B600023E5
:101CF000BB603B461946064807F0AAFC0346002B8A
:101D000001D002F057FC00BF1037BD4680BD00BFB8
:101D1000A4020020002101400100000F80B584B022
:101D200000AF3B4600221A605A609A60DA60214B8D
:101D3000214A1A601F4B00225A601E4B00229A60F3
:101D40001C4B00221A611B4B00221A76194B0022F1
:101D500083F82020174B0022DA62164B174A9A624A
:101D6000144B0022DA60134B0122DA61114B00227E
:101D700083F830200F4B01225A610E4807F0BAFA5F
:101D80000346002B01D002F015FC0B233B6001231E
:101D90007B600023BB603B461946064807F058FCB1
:101DA0000346002B01D002F005FC00BF1037BD46F2
:101DB00080BD00BFEC020020002201400100000FA6
:101DC00080B58EB000AF786007F1240300221A605E
:101DD0005A609A60DA601A617B681B688C4A934289
:101DE00057D100233B628B4B5B6C8A4A43F4807370
:101DF0005364884B5B6C03F480733B623B6A002343
:101E0000FB61844B1B6B834A43F002031363814BDA
:101E10001B6B03F00203FB61FB6901237B6203235D
:101E2000BB620023FB6207F1240319467A4808F0DD
:101E300019FD7A4B7A4A1A60784B00225A60774B28
:101E400000229A60754B0022DA60744B4FF4806276
:101E50001A61724B4FF400625A61704B4FF400529A
:101E60009A616E4B0022DA616C4B00221A626B4B56
:101E700000225A62694808F0F3F80346002B01D0AB
:101E800002F098FB7B68654A9A63644A7B689363B7
:101E9000BAE07B681B68634A934258D10023BB6158
:101EA0005C4B5B6C5B4A43F400735364594B5B6C53
:101EB00003F40073BB61BB6900237B61554B1B6B53
:101EC000544A43F002031363524B1B6B03F00203AB
:101ED0007B617B6902237B620323BB620023FB627D
:101EE00007F1240319464C4808F0BCFC4E4B4F4AFE
:101EF0001A604D4B4FF000725A604B4B00229A60B3
:101F0000494B0022DA60484B4FF480621A61464B1D
:101F10004FF400625A61444B4FF400529A61424BB5
:101F20000022DA61404B00221A623F4B00225A62C3
:101F30003D4808F095F80346002B01D002F03AFB2B
:101F40007B68394A9A63384A7B6893635CE07B68B4
:101F50001B68374A934257D100233B612D4B5B6C82
:101F60002C4A43F4806353642A4B5B6C03F4806314
:101F70003B613B690023FB60264B1B6B254A43F00A
:101F800004031363234B1B6B03F00403FB60FB6828
:101F900002237B620323BB620023FB6207F124035D
:101FA0001946244808F05EFC234B244A1A60224B51
:101FB0004FF080625A60204B00229A601E4B002234
:101FC000DA601D4B4FF480621A611B4B4FF40062C4
:101FD0005A61194B4FF400529A61174B0022DA6193
:101FE000154B00221A62144B00225A62124808F064
:101FF00037F80346002B01D002F0DCFA7B680E4A6A
:102000009A630D4A7B68936300BF3837BD4680BD35
:102010000020014000380240000402403403002048
:1020200010640240002101409403002058640240E3
:102030000022014000080240F4030020286402400E
:1020400080B400AF044B1A68034B5B681344184616
:10205000BD465DF8047B70475404002080B485B011
:1020600000AF786039607B68002B02D03B68002BA2
:1020700001D1012356E07A683B689A420DD10023D2
:1020800050E07B681B78002B01D100234AE07B687D
:1020900001337B603B6801333B607B681B78FB73DB
:1020A000FB7B0133224A13441B7803F00303012B0B
:1020B00003D1FB7B03F1200200E0FA7B3B681B7835
:1020C000BB73BB7B01331A490B441B7803F003033A
:1020D000012B02D1BB7B203300E0BB7B9A42D0D0E6
:1020E0007B681B787B737B7B0133114A13441B781D
:1020F00003F00303012B03D17B7B03F1200200E0FB
:102100007A7B3B681B783B733B7B013308490B446C
:102110001B7803F00303012B02D13B7B203300E04B
:102120003B7BD31A18461437BD465DF8047B7047D5
:10213000A05A010880B584B000AF78607B681B6846
:1021400028209847F860FB68002B04D02822002143
:10215000F8680DF077FBFB6818461037BD4680BD68
:1021600080B584B000AF78600023FB603DE07B6801
:102170001B68FB607B68DB6803F48073002B08D16D
:102180007B689B68002B04D07B689B681846FFF730
:10219000E7FF7B68DB6803F48073002B0CD17B685E
:1021A0001B69002B08D0154B5B687A6812691046D2
:1021B00098477B6800221A617B68DB6803F4007330
:1021C000002B0CD17B681B6A002B08D00B4B5B6883
:1021D0007A68126A104698477B6800221A62074B99
:1021E0005B6878689847FB687B607B68002BBED192
:1021F00000BF00BF1037BD4680BD00BF04000020F7
:1022000080B400AF2E231846BD465DF8047B7047AE
:1022100080B598B000AF786039604FF000024FF0A1
:102220000003C7E914230023BB64FFF7E9FF03465B
:1022300087F84F300023FB653B68002B03D03B68D9
:102240001B68002B01D10023A0E00023FB653DE0CB
:102250003B681A683B689968FB6D0B4413441B7814
:10226000452B17DC2B2B40DB2B3B01229A404C4BA0
:102270001340002B14BF01230023DBB2002B0BD132
:1022800002F00803002B14BF01230023DBB2002B54
:1022900011D12AE0652B28D13B681A683B68996800
:1022A000FB6D0B441344197807F10802FB6D1344CE
:1022B0000A461A7007E007F10802FB6D134497F80D
:1022C0004F201A7000BFFB6D0133FB65FB6D3E2B89
:1022D0000DD83B68002B0AD03B689A68FB6D1A4406
:1022E0003B685B689A42B3D301E000BF00E000BFE7
:1022F00007F10802FB6D134400221A7007F148022F
:1023000007F10803114618460CF0BCF987ED140BD1
:10231000BA6C07F108039A4201D1002336E07968CC
:10232000D7E91423C1E906231BA3D3E90023D7E986
:102330001401FEF7F7FB0346002B04D07B686FF017
:1023400000425A6115E04FF00002164BD7E9140124
:10235000FEF7DEFB0346002B04D07B684FF0004203
:102360005A6106E0D7E91401FEF706FC02467B68D5
:102370005A617B680822DA603B689B68B96C07F198
:1023800008028A1A1A443B689A600123184660378B
:10239000BD4680BDAFF300800000C0FFFFFFDF41FE
:1023A000E57F00040000E0C180B485B000AF786034
:1023B0000023FB600023BB600023BB604CE07A6815
:1023C000BB6813441B782F2B0FD97A68BB68134462
:1023D0001B78392B09D87A68BB6813441B781A46D6
:1023E000FB681344303BFB602DE07A68BB68134404
:1023F0001B78402B0FD97A68BB6813441B78462B97
:1024000009D87A68BB6813441B781A46FB681344E2
:10241000373BFB6017E07A68BB6813441B78602B7E
:102420000FD97A68BB6813441B78662B09D87A6881
:10243000BB6813441B781A46FB681344573BFB6088
:1024400001E000230CE0BB68022B02D8FB681B01F3
:10245000FB60BB680133BB60BB68032BAFD9FB6873
:1024600018461437BD465DF8047B704780B58AB0C6
:1024700000AFF860B9607A6000237B620023FB61E3
:10248000FB68BB61002387F82330002387F82230E4
:10249000002387F82130002387F82030BA68BB6911
:1024A000D31A052B40F3B780BB6902331846FFF7F8
:1024B0007BFFF861FB69B3F55C4F04D3FB69B3F5AF
:1024C000604FC0F0AA80FB69B3F5584F37D3FB6962
:1024D000B3F55C4F33D2BB6906337B6100233B61AC
:1024E0000C2387F82130BA687B69D31A052B40F397
:1024F00096807B691B785C2B40F093807B6901336D
:102500001B78752B40F08D807B6902331846FFF7EE
:102510004BFF38613B69B3F55C4FC0F084803B6989
:10252000B3F5604F7FD2FB699A02434B13403A697F
:10253000C2F30902134303F580337B6204E00623F0
:1025400087F82130FB697B627B6A7F2B03D80123EC
:1025500087F823301FE07B6AB3F5006F06D20223B1
:1025600087F82330C02387F8203014E07B6AB3F566
:10257000803F06D2032387F82330E02387F82030FA
:1025800009E07B6AB3F5881F4FD2042387F8233014
:10259000F02387F8203097F82330013B87F822306A
:1025A00015E07B6ADBB203F03F03DAB27B6819689F
:1025B00097F822300B4462F07F02D2B21A707B6A25
:1025C0009B097B6297F82230013B87F8223097F80D
:1025D0002230002BE5D197F82330012B09D97B6AF3
:1025E000D9B27B681B6897F820200A43D2B21A70D0
:1025F00007E07B6ADAB27B681B6802F07F02D2B226
:102600001A707B681A6897F823301A447B681A603E
:1026100097F821300BE000BF08E000BF06E000BFE4
:1026200004E000BF02E000BF00E000BF0023184646
:102630002837BD4680BD00BF00FC0F0080B58AB0C2
:1026400000AF786039603B681A683B689B6801336B
:1026500013447B623B681A683B689B6801331344F0
:102660003B620023FB600023FB613B681A683B6808
:102670009B6813441B78222B40F0038100233B61AD
:102680000023BB6117E03B6A1B785C2B10D13B6ACF
:102690005A1C3B681B68D31A1A463B685B689A420F
:1026A00080F0F180BB690133BB613B6A01333B625F
:1026B0003B6A01333B623B681B683A6AD31A1A468D
:1026C0003B685B689A4203D23B6A1B78222BDAD1C3
:1026D0003B681B683A6AD31A1A463B685B689A42A1
:1026E00080F0D3803B6A1B78222B40F0CE803B6881
:1026F0001A683B689B6813443A6AD31A1A46BB6946
:10270000D31A3B613B681B693A690132104698470E
:10271000F861FB69002B00F0BA80FB69FB6094E074
:102720007B6A1B785C2B08D07A6A531C7B62FB683F
:10273000591CF96012781A7087E00223FB753A6A17
:102740007B6AD31A002B40F3A4807B6A01331B7889
:10275000752B00F3A0805C2B04DA222B5CD02F2B8E
:102760005AD098E05C3B192B00F2958001A252F8F8
:1027700023F000BF192800089728000897280008B0
:10278000972800089728000897280008DD270008E8
:10279000972800089728000897280008E9270008CC
:1027A000972800089728000897280008972800080D
:1027B000972800089728000897280008F5270008A0
:1027C0009728000897280008972800080128000883
:1027D000972800080D28000829280008FB685A1CC3
:1027E000FA6008221A702CE0FB685A1CFA600C226E
:1027F0001A7026E0FB685A1CFA600A221A7020E060
:10280000FB685A1CFA600D221A701AE0FB685A1C09
:10281000FA6009221A7014E07B6A5A1CFB68591C82
:10282000F96012781A700CE007F10C031A46396A45
:10283000786AFFF71BFE0346FB75FB7D002B2CD04F
:1028400000BFFB7D7A6A13447B627A6A3B6A9A42D4
:10285000FFF466AFFB6800221A707B681022DA6012
:102860007B68FA691A613B681B683A6AD31A1A4690
:102870003B689A603B689B685A1C3B689A600123DE
:1028800020E000BF0AE000BF08E000BF06E000BF94
:1028900004E000BF02E000BF00E000BFFB69002BC6
:1028A00005D03B685B69F86998470023FB617B6A48
:1028B000002B06D03B681B687A6AD31A1A463B681D
:1028C0009A60002318462837BD4680BD80B483B087
:1028D00000AF78607B68002B03D07B681B68002BFF
:1028E00001D100232CE07B68002B05D07B689A681F
:1028F0007B685B689A4206D37B6821E07B689B68B3
:102900005A1C7B689A607B68002B0DD07B689A68A4
:102910007B685B689A4207D27B681A687B689B6811
:1029200013441B78202BE9D97B689A687B685B6825
:102930009A4204D17B689B685A1E7B689A607B68C8
:1029400018460C37BD465DF8047B704780B582B0F1
:1029500000AF78607B68002B07D07B681B68002B7A
:1029600003D07B689B68002B01D000231CE07B68B0
:10297000002B18D07B689B681A1D7B685B689A42A5
:1029800011D27B681A687B689B681344032208494C
:1029900018460CF05FFF0346002B04D17B689B6850
:1029A000DA1C7B689A607B6818460837BD4680BD94
:1029B0004858010880B586B000AFF860B9607A6009
:1029C000FB68002B01D100230CE0F868FDF760FCE8
:1029D000034601337B617B68BA687969F86800F067
:1029E00005F8034618461837BD4680BD80B58EB041
:1029F00000AFF860B9607A603B6007F1180300220D
:102A00001A605A609A60DA601A615A619A6100230A
:102A10007B63414B00221A603F4B00225A60FB68E7
:102A2000002B42D0BB68002B3FD0FB68BB61BB686A
:102A3000FB6100233B62394A07F1280307CA83E898
:102A400007003648FFF776FB78637B6B002B2ED0B0
:102A500007F118031846FFF779FF03461846FFF7FA
:102A600035FF03461946786B00F068F80346002BE3
:102A70001FD03B68002B0ED007F118031846FFF754
:102A800025FF3A6AFB699A4215D2BA693B6A134438
:102A90001B78002B0FD17B68002B04D0BA693B6AEE
:102AA0001A447B681A607B6B31E000BF04E000BF12
:102AB00002E000BF00E000BF7B6B002B02D0786B10
:102AC000FFF74EFBFB68002B20D0FB683B61002327
:102AD0007B613A6AFB699A4202D23B6A7B6105E0FC
:102AE000FB69002B02D0FB69013B7B617B68002BFB
:102AF00004D03A697B691A447B681A60064B1A460F
:102B000007F1100393E8030082E80300002318464E
:102B10003837BD4680BD00BF5404002004000020AB
:102B200080B582B000AF7860002200217868FFF79E
:102B300041FF034618460837BD4680BD80B582B0C8
:102B400000AF786039603B68002B03D03B681B689E
:102B5000002B01D10023D2E03B68002B1DD03B6845
:102B60009B681A1D3B685B689A4216D83B681A68D6
:102B70003B689B6813440422634918460CF06AFEC4
:102B80000346002B09D17B680422DA603B689B680E
:102B90001A1D3B689A600123B1E03B68002B1DD0F1
:102BA0003B689B685A1D3B685B689A4216D83B6835
:102BB0001A683B689B6813440522544918460CF078
:102BC00049FE0346002B09D17B680122DA603B688D
:102BD0009B685A1D3B689A60012390E03B68002B7C
:102BE00020D03B689B681A1D3B685B689A4219D8E5
:102BF0003B681A683B689B681344042244491846A2
:102C00000CF028FE0346002B0CD17B680222DA6010
:102C10007B6801225A613B689B681A1D3B689A6079
:102C200001236CE03B68002B13D03B689A683B683B
:102C30005B689A420DD23B681A683B689B681344F4
:102C40001B78222B05D139687868FFF7F7FC03461B
:102C500055E03B68002B23D03B689A683B685B6873
:102C60009A421DD23B681A683B689B6813441B78E4
:102C70002D2B0FD03B681A683B689B6813441B7868
:102C80002F2B0DD93B681A683B689B6813441B784F
:102C9000392B05D839687868FFF7BAFA03462EE071
:102CA0003B68002B13D03B689A683B685B689A428C
:102CB0000DD23B681A683B689B6813441B785B2BFA
:102CC00005D13968786800F025F8034617E03B68BD
:102CD000002B13D03B689A683B685B689A420DD220
:102CE0003B681A683B689B6813441B787B2B05D1B3
:102CF0003968786800F0D2F8034600E000231846EF
:102D00000837BD4680BD00BF1C5801084C5801085B
:102D10005458010880B586B000AF78603960002350
:102D20007B6100233B613B68DB68B3F57A7F01D3AD
:102D30000023AFE03B68DB685A1C3B68DA603B6805
:102D40001A683B689B6813441B785B2B40F09480A7
:102D50003B689B685A1C3B689A603868FFF7B6FD71
:102D60003B68002B0DD03B689A683B685B689A42D1
:102D700007D23B681A683B689B6813441B785D2B3D
:102D800061D03B68002B05D03B689A683B685B6864
:102D90009A4205D33B689B685A1E3B689A6072E072
:102DA0003B689B685A1E3B689A603B681033184624
:102DB000FFF7C0F9F860FB68002B5FD07B69002B40
:102DC00004D1FB687B617B693B6107E03B69FA6882
:102DD0001A60FB683A695A60FB683B613B689B6814
:102DE0005A1C3B689A603868FFF770FD396838698B
:102DF000FFF7A4FE0346002B42D03868FFF766FDBC
:102E00003B68002B0DD03B689A683B685B689A4230
:102E100007D23B681A683B689B6813441B782C2BCD
:102E2000C3D03B68002B2DD03B689A683B685B6839
:102E30009A4227D23B681A683B689B6813441B7808
:102E40005D2B1FD100E000BF3B68DB685A1E3B686A
:102E5000DA607B69002B02D07B693A695A607B6833
:102E60002022DA607B687A699A603B689B685A1C0A
:102E70003B689A6001230DE000BF04E000BF02E060
:102E800000BF00E000BF7B69002B02D07869FFF72C
:102E900067F9002318461837BD4680BD80B586B057
:102EA00000AF7860396000237B6100233B613B68A1
:102EB000DB68B3F57A7F01D30023F7E03B68DB687A
:102EC0005A1C3B68DA603B68002B00F0DB803B68F3
:102ED0009A683B685B689A4280F0D4803B681A68C5
:102EE0003B689B6813441B787B2B40F0CB803B688E
:102EF0009B685A1C3B689A603868FFF7E7FC3B68A0
:102F0000002B0ED03B689A683B685B689A4208D2F7
:102F10003B681A683B689B6813441B787D2B00F064
:102F200098803B68002B05D03B689A683B685B68DB
:102F30009A4205D33B689B685A1E3B689A60AEE094
:102F40003B689B685A1E3B689A603B681033184682
:102F5000FFF7F0F8F860FB68002B00F095807B69C4
:102F6000002B04D1FB687B617B693B6107E03B6917
:102F7000FA681A60FB683A695A60FB683B613B6813
:102F8000002B00F083803B689B685A1C3B685B68A1
:102F90009A427BD23B689B685A1C3B689A603868AF
:102FA000FFF794FC39683869FFF748FB0346002BAC
:102FB0006ED03868FFF78AFC3B691A693B691A6270
:102FC0003B6900221A613B68002B63D03B689A681A
:102FD0003B685B689A425DD23B681A683B689B68B5
:102FE00013441B783A2B55D13B689B685A1C3B68AD
:102FF0009A603868FFF76AFC39683869FFF79EFD08
:103000000346002B48D03868FFF760FC3B68002B74
:103010000DD03B689A683B685B689A4207D23B6870
:103020001A683B689B6813441B782C2B8DD03B6837
:10303000002B33D03B689A683B685B689A422DD27C
:103040003B681A683B689B6813441B787D2B25D12D
:1030500000E000BF3B68DB685A1E3B68DA607B69B2
:10306000002B02D07B693A695A607B684022DA60A3
:103070007B687A699A603B689B685A1C3B689A60D7
:10308000012313E000BF0AE000BF08E000BF06E034
:1030900000BF04E000BF02E000BF00E000BF7B69AA
:1030A000002B02D07869FFF75BF800231846183729
:1030B000BD4680BD80B485B000AF78600023FB6062
:1030C0000023BB607B68002B01D100230DE07B68EF
:1030D0009B68FB6005E0BB680133BB60FB681B6855
:1030E000FB60FB68002BF6D1BB6818461437BD4661
:1030F0005DF8047B704780B485B000AF78603960BC
:103100000023FB607B68002B01D1002310E07B686B
:103110009B68FB6005E03B68013B3B60FB681B680C
:10312000FB60FB68002B02D03B68002BF3D1FB68EF
:1031300018461437BD465DF8047B704780B582B0F1
:1031400000AF786039603B68002B01DA002305E0AE
:103150003B6819467868FFF7CEFF034618460837E4
:10316000BD4680BD80B586B000AFF860B9607A60BA
:1031700000237B61FB68002B02D0BB68002B01D1D0
:10318000002333E0FB689B687B617B68002B17D0D2
:1031900002E07B691B687B617B69002B1CD07B692B
:1031A0001B6A002B18D07B691B6A1946B868FDF7AB
:1031B0000FF80346002BECD10EE07B691B687B61A6
:1031C0007B69002B08D07B691B6A1946B868FEF73B
:1031D00045FF0346002BF0D17B69002B03D07B69B0
:1031E0001B6A002B01D1002300E07B6918461837C9
:1031F000BD4680BD80B582B000AF786039600122E5
:1032000039687868FFF7AEFF034618460837BD46B1
:1032100080BD80B483B000AF78607B68002B01D1A3
:10322000002307E07B68DB68DBB2202B0CBF0123A7
:103230000023DBB218460C37BD465DF8047B7047AF
:1032400080B483B000AF78607B68002B01D100238D
:1032500007E07B68DB68DBB2402B0CBF0123002357
:10326000DBB218460C37BD465DF8047B70470000A2
:1032700080B500AF174B184A1A60164B02225A60ED
:10328000144B00229A60134B0022DA60114B4FF46A
:1032900020221A610F4B4FF4A0025A610D4B0022FD
:1032A0001A760C4B00225A760A4B00229A76094B6A
:1032B0000022DA76074B00221A77064B00225A7753
:1032C000044806F0EFFB0346002B01D001F072F931
:1032D00000BF80BD5C0400200064004080B500AFEA
:1032E000174B184A1A60164B02225A60144B0022E0
:1032F0009A60134B0022DA60114B4FF420221A61BE
:103300000F4B4FF4A0025A610D4B00221A760C4B62
:1033100000225A760A4B00229A76094B0022DA766E
:10332000074B00221A77064B00225A77044806F012
:10333000B9FB0346002B01D001F03CF900BF80BD72
:10334000840400200068004080B58EB000AF786033
:1033500007F1240300221A605A609A60DA601A6149
:103360007B681B68524A934255D1524B1B6801330C
:10337000504A13604F4B1B68012B0DD100233B6259
:103380004D4B1B6C4C4A43F0007313644A4B1B6C4F
:1033900003F000733B623B6A0023FB61464B1B6BEF
:1033A000454A43F001031363434B1B6B03F00103D6
:1033B000FB61FB690023BB613F4B1B6B3E4A43F043
:1033C000020313633C4B1B6B03F00203BB61BB693D
:1033D0004FF480537B620223BB620023FB62032312
:1033E0003B6309237B6307F124031946334807F045
:1033F00039FA4FF480737B620223BB620023FB62C5
:1034000003233B6309237B6307F1240319462C48FC
:1034100007F028FA48E07B681B682A4A934243D1A8
:1034200000237B61244B1B6C234A43F080631364AD
:10343000214B1B6C03F080637B617B691D4B1B6818
:1034400001331C4A13601B4B1B68012B0DD1002359
:103450003B61194B1B6C184A43F000731364164B05
:103460001B6C03F000733B613B690023FB60124B54
:103470001B6B114A43F0020313630F4B1B6B03F0EA
:103480000203FB60FB684FF440537B620223BB6284
:103490000023FB6203233B6309237B6307F12403BF
:1034A0001946074807F0DEF900BF3837BD4680BD32
:1034B00000640040AC0400200038024000000240DC
:1034C000000402400068004080B584B000AF78601E
:1034D0000B46FB700023FB60114B4FF400721A6027
:1034E0000F4B00225A600E4B00229A600C4B0022B8
:1034F000DA60FB780A4A1361094B00221A7507F15A
:103500000C037A680649074806F0C7FB0346002B00
:1035100001D0002300E0FB6818461037BD4680BD8F
:10352000B00400205C04002080B582B000AF00230E
:103530007B60374B1B6B364A43F400131363344BE9
:103540001B6B03F400137B607B6800233B60304BF4
:103550001B6B2F4A43F4800313632D4B1B6B03F447
:1035600080033B603B68002200210B2006F041FDF8
:103570000B2006F05AFD002200210C2006F039FD38
:103580000C2006F052FD002200210D2006F031FD36
:103590000D2006F04AFD002200210F2006F029FD33
:1035A0000F2006F042FD00220021102006F021FD30
:1035B000102006F03AFD002200212F2006F019FD10
:1035C0002F2006F032FD00220021382006F011FDE8
:1035D000382006F02AFD00220021392006F009FDDE
:1035E000392006F022FD002200213A2006F001FDDC
:1035F0003A2006F01AFD002200213B2006F0F9FCDB
:103600003B2006F012FD00BF0837BD4680BD00BF5D
:103610000038024080B58AB000AF07F114030022E1
:103620001A605A609A60DA601A6100233B613A4B73
:103630001B6B394A43F004031363374B1B6B03F0D6
:1036400004033B613B690023FB60334B1B6B324A35
:1036500043F080031363304B1B6B03F08003FB606C
:10366000FB680023BB602C4B1B6B2B4A43F0010310
:103670001363294B1B6B03F00103BB60BB68002382
:103680007B60254B1B6B244A43F002031363224BE0
:103690001B6B03F002037B607B6800233B601E4BC7
:1036A0001B6B1D4A43F0080313631B4B1B6B03F09A
:1036B00008033B603B6800223821184807F086FA6F
:1036C0004FF440437B610023BB610023FB6107F1A2
:1036D00014031946114807F0C5F8C0237B61002385
:1036E000BB610023FB6107F1140319460C4807F086
:1036F000B9F838237B610123BB610023FB61002300
:103700003B6207F114031946044807F0ABF800BF09
:103710002837BD4680BD00BF00380240000402408B
:10372000000802400000000080B584B000AF87EDC3
:10373000020B87ED001B18A3D3E90023D7E9020190
:10374000FDF7DCF90346002B09D115A3D3E90023CB
:10375000D7E90201FDF7F0F90346002B01D0012360
:1037600016E011A3D3E90023D7E90001FDF7C6F95C
:103770000346002B09D10EA3D3E90023D7E90001AA
:10378000FDF7DAF90346002B01D0012300E0002306
:1037900018461037BD4680BDC74B3789410052409F
:1037A000143FC6DCB53A614061545227A089EA3F14
:1037B000C442AD69DEE94B402DE9B04386B000AFAD
:1037C00087ED020B87ED001BD7E9020102460B468D
:1037D000FCF76CFD02460B46104619464FF00002FE
:1037E000D34BFCF761FD02460B46904699464FF0DD
:1037F0000002D04BD7E90001FCF70EFF02460B4652
:1038000040464946FCF752FD02460B469046994613
:10381000C1A3D3E90023D7E90001FCF7FDFE02466E
:103820000B4610461946D7E90023FCF7F5FE024681
:103830000B4640464946FCF739FD02460B4690468A
:103840009946B7A3D3E90023D7E90201FCF7E4FEC8
:1038500002460B4610461946D7E90023FCF7DCFE6A
:1038600002460B4640464946FCF720FD02460B4601
:1038700090469946BC68FB6823F0004545EC104B28
:103880000FF068F951EC100BA3A3D3E90023FCF768
:10389000C3FE02460B4640464946FCF707FD02467A
:1038A0000B46C7E904234FF00002A34BD7E90201FE
:1038B000FCF7B2FE02460B46104619469AA3D3E91E
:1038C0000023FCF7A9FE02460B4643EC172BB0EE93
:1038D000470AF0EE670A0FF0C7F951EC100B4FF0F2
:1038E0000002964BFCF798FE02460B4614461D4616
:1038F000D7E9020102460B46FCF7D8FC02460B460C
:103900001046194688A3D3E90023FCF785FE02463A
:103910000B4643EC172BB0EE470AF0EE670A0FF0A8
:10392000A3F951EC100B4FF00002844BFCF774FE2E
:1039300002460B4620462946FCF7B8FC02460B46D9
:103940001046194602460B46FCF7B0FC02460B46F1
:10395000104619464FF00002764BFCF787FF0246EF
:103960000B46D7E90401FCF7A1FC02460B46C7E968
:1039700004236DA3D3E90023D7E90001FCF74CFE33
:1039800002460B4643EC172BB0EE470AF0EE670AEF
:103990000FF06AF951EC100B4FF00002674BFCF787
:1039A0003BFE02460B4614461D464FF00002614B9B
:1039B000D7E90001FCF75AFF02460B4610461946AC
:1039C00059A3D3E90023FCF727FE02460B4643EC3C
:1039D000172BB0EE470AF0EE670A0FF045F951ECED
:1039E000100B4FF00002564BFCF716FE02460B463A
:1039F00020462946FCF75AFC02460B46104619465B
:103A000002460B46FCF752FC02460B46104619468E
:103A10004FF00002474BFCF729FF02460B46D7E95F
:103A20000401FCF743FC02460B46C7E904234FF0B0
:103A30000002444BD7E90001FCF718FF02460B4691
:103A40001046194638A3D3E90023FCF7E5FD0246EA
:103A50000B4643EC172BB0EE470AF0EE670A0FF067
:103A600003F951EC100B4FF00002374BFCF7D4FD7B
:103A700002460B4614461D462BA3D3E90023D7E983
:103A80000001FCF7C9FD02460B46104619464FF0EF
:103A900000022E4BFCF7EAFE02460B4643EC172BC6
:103AA000B0EE470AF0EE670A0FF0DEF851EC100BAB
:103AB0004FF00002264BFCF7AFFD02460B462046B6
:103AC0002946FCF7F3FB02460B4610461946024610
:103AD0000B46FCF7EBFB02460B46104619464FF02F
:103AE0000002144BFCF7C2FE02460B46D7E9040164
:103AF000FCF7DCFB02460B46C7E90423D7E90423A5
:103B000043EC172BB0EE470AF0EE670A1837BD46B4
:103B1000BDE8B083AFF300809A9999999999C93F0C
:103B20009A9999999999B93F182D4454FB210940C4
:103B300000005940000008400000184000003440D8
:103B400000004440000028400000644000003E4067
:103B500000007440000000002DE9B04386B000AFC3
:103B600087ED020B87ED001BD3A3D3E90023D7E930
:103B70000201FCF79BFB02460B4690469946D7E9AB
:103B8000000102460B46FCF791FB02460B464046FD
:103B90004946FCF78BFB02460B4690469946CEA35E
:103BA000D3E90023D7E90201FCF736FD02460B46B4
:103BB00010461946D7E90223FCF72EFD02460B46B4
:103BC00040464946FCF772FB02460B469046994632
:103BD000C1A3D3E90023D7E90201FCF71DFD02468A
:103BE0000B4610461946D7E90023FCF715FD02469F
:103BF0000B4640464946FCF759FB02460B469046A9
:103C00009946BC68FB6823F0004545EC104B0EF06C
:103C1000A1FF51EC100BB0A3D3E90023FCF7FCFC8F
:103C200002460B4640464946FCF740FB02460B461F
:103C3000C7E904234FF00002A14BD7E90201FCF7CA
:103C4000EBFC02460B461046194697A3D3E9002326
:103C5000FCF7E2FC02460B4643EC172BB0EE470A9A
:103C6000F0EE670A0FF000F851EC100B4FF0000275
:103C7000944BFCF7D1FC02460B4614461D46D7E98F
:103C8000020102460B46FCF711FB02460B461046AA
:103C9000194685A3D3E90023FCF7BEFC02460B4678
:103CA00043EC172BB0EE470AF0EE670A0EF0DCFF8C
:103CB00051EC100B4FF00002824BFCF7ADFC0246BA
:103CC0000B4620462946FCF7F1FA02460B46104601
:103CD000194602460B46FCF7E9FA02460B46104627
:103CE00019464FF00002784BFCF7C0FD02460B4628
:103CF000D7E90401FCF7DAFA02460B46C7E90423C8
:103D000069A3D3E90023D7E90201FCF785FC024649
:103D10000B4643EC172BB0EE470AF0EE670A0EF0A5
:103D2000A3FF51EC100B4FF00002664BFCF774FC44
:103D300002460B4614461D464FF00002624BD7E97F
:103D40000201FCF793FD02460B461046194656A3A6
:103D5000D3E90023FCF760FC02460B4643EC172B2B
:103D6000B0EE470AF0EE670A0EF07EFF51EC100B42
:103D70004FF00002554BFCF74FFC02460B46204625
:103D80002946FCF793FA02460B46104619460246AE
:103D90000B46FCF78BFA02460B46104619464FF0CD
:103DA0000002494BFCF762FD02460B46D7E90401CD
:103DB000FCF77CFA02460B46C7E904234FF00002E9
:103DC000434BD7E90201FCF751FD02460B46104672
:103DD000194635A3D3E90023FCF71EFC02460B4627
:103DE00043EC172BB0EE470AF0EE670A0EF03CFFEB
:103DF00051EC100B2EA3D3E90023FCF70DFC024677
:103E00000B4614461D464FF00002324BD7E9020123
:103E1000FCF72CFD02460B461046194622A3D3E9B7
:103E20000023FCF7F9FB02460B4643EC172BB0EEE0
:103E3000470AF0EE670A0EF017FF51EC100B1EA3B5
:103E4000D3E90023FCF7E8FB02460B46204629464F
:103E5000FCF72CFA02460B461046194602460B4662
:103E6000FCF724FA02460B46104619464FF00002B2
:103E7000154BFCF7FBFC02460B46D7E90401FCF7A7
:103E800015FA02460B46C7E90423D7E9042343EC9D
:103E9000172BB0EE470AF0EE670A1837BD46BDE8AB
:103EA000B08300BFAFF30080182D4454FB210940BC
:103EB0000000000000C062400000000000C072402E
:103EC000000018400000344000000840000044405A
:103ED0000000284000003E409A9999999999B93F6D
:103EE0002DE9B0432DED028B90B000AF87ED040BB0
:103EF00087ED021B786097ED021B97ED040BFFF72F
:103F000013FC0346002B40F0F5804FF000028C4B71
:103F1000D7E90401FCF7C8F902460B4643EC182B1D
:103F20004FF00002874BD7E90201FCF7BDF90246CA
:103F30000B4643EC172BB0EE471AF0EE671AB0EEC3
:103F4000480AF0EE680AFFF737FC87ED0E0B4FF0DA
:103F500000027B4BD7E90401FCF7A6F902460B46A9
:103F600043EC182B4FF00002764BD7E90201FCF727
:103F70009BF902460B4643EC172BB0EE471AF0EEC6
:103F8000671AB0EE480AF0EE680AFFF7E5FD87ED24
:103F90000C0B4FF000026C4BD7E90201FCF766FCFA
:103FA00002460B46104619465DA3D3E90023FCF7F1
:103FB00033FB02460B46C7E90A2397ED0A0B0EF0C6
:103FC00053FE87ED080B58A3D3E90023D7E9080176
:103FD000FCF722FB02460B4610461946D7E9082398
:103FE000FCF71AFB02460B464FF000005749FCF75E
:103FF0005BF902460B46C7E9082397ED080B0EF064
:10400000A9FD87ED060B4FF000024F4BD7E90E01DB
:10401000FCF702FB02460B4614461D46D7E9062371
:10402000D7E90801FCF7F8FA02460B4640A1D1E9AE
:104030000001FCF71BFC02460B461046194638A34C
:10404000D3E90023FCF7E8FA02460B46204629464E
:10405000FCF70CFC02460B46C7E90E234FF00002AA
:10406000394BD7E90C01FCF7D7FA02460B46144648
:104070001D46D7E9062330A1D1E90001FCF7F6FB84
:1040800002460B469046994697ED0A0B0EF090FDBE
:1040900053EC102B40464946FCF7BEFA02460B464D
:1040A000104619461EA3D3E90023FCF7B5FA0246D1
:1040B0000B4620462946FCF7D9FB02460B46C7E9CA
:1040C0000C23D7E90C23D7E90401FCF7EFF80246EB
:1040D0000B467968C1E900237B6803F10804D7E93E
:1040E0000E23D7E90201FCF7E1F802460B46C4E9CA
:1040F00000230BE07968D7E90423C1E900237B683A
:1041000003F10801D7E90223C1E9002300BF4037CA
:10411000BD46BDEC028BBDE8B08300BFAFF30080AD
:10412000182D4454FB2109400BEF80AF8F6A7B3F71
:10413000C155E32D102B584100000040C154584197
:1041400000405A4000804140008066400000F03F3F
:10415000B0B58EB000AF87ED040B87ED021B786021
:10416000D7E90423C7E90C23D7E90223C7E90A23C7
:10417000D7E90C23D7E90C01FCF74EFA02460B46AF
:1041800014461D46D7E90A23D7E90A01FCF744FA89
:1041900002460B4620462946FCF788F802460B46A5
:1041A00043EC172BB0EE470AF0EE670A0EF0D2FC94
:1041B00055EC104B40A3D3E90023D7E90A01FCF7E3
:1041C0002BFA02460B4643EC172BB0EE470AF0EEF3
:1041D000670A0EF049FD51EC100B39A3D3E9002317
:1041E000FCF71AFA02460B4620462946FCF75EF811
:1041F00002460B46C7E9082397ED0C1B97ED0A0B07
:104200000EF008FC55EC104B2BA3D3E90023D7E9A3
:104210000C01FCF701FA02460B4643EC172BB0EEFB
:10422000470AF0EE670A0EF0C3FC51EC100B26A310
:10423000D3E90023FCF7F0F902460B462046294655
:10424000FCF734F802460B46C7E9062397ED060B48
:104250000EF0AEFC51EC100BD7E90823FCF7DCF9AB
:1042600002460B461046194619A3D3E90023FCF772
:104270001DF802460B467968C1E9002397ED060B4D
:104280000EF0F2FC51EC100BD7E90823FCF7C4F94F
:1042900002460B46104619467B6803F108040EA33C
:1042A000D3E90023FCF702F802460B46C4E90023D9
:1042B00000BF3837BD46B0BD4E04C777102E4A4008
:1042C000F168E388B5F8F43E54E41071732AC93EEE
:1042D00039B4C876BE9F7A3FFA7E6ABC7493783F41
:1042E00080B58AB000AF87ED040B87ED021B7860C4
:1042F00007F11803184697ED021B97ED040BFFF723
:10430000EFFD97ED067B97ED086B7868B0EE461AE7
:10431000F0EE661AB0EE470AF0EE670AFFF718FFF4
:1043200000BF2837BD4680BD80B500AF04F04CFF0C
:1043300000F098F8FFF76EF9FFF7F6F804F044FB89
:10434000FDF748FC03F0AEF903F04CFA04F0A4FBCF
:10435000FEF78EFFFEF7C2FFFDF78EFC04F0C6FBF2
:10436000FDF7DCFC04F002FC04F06CFB2B480BF0C6
:104370003DF94FF480722A492A4808F098F84FF422
:1043800080722949294808F092F80021284807F04E
:1043900077F90C21274807F073F9254B1B6840F685
:1043A000B8325A63234B1B6840F6B8321A64224B6A
:1043B0004FF40062A3F8B8231F4B4FF40062A3F838
:1043C000BA231D4B002283F86E231C4B00221A6077
:1043D0001B4B1C4A1A60FCF715FE1B4B00221A608F
:1043E0001A4B00221A601A4B00221A70194B002235
:1043F0001A60194B00221A70184B00221A700E4BCB
:104400000022C3F810230C494FF00002144BC1E9FD
:10441000CE2302F06DFB00BFFBE700BF5C58010834
:10442000C4090020900B0020D4040020680C002058
:10443000F00A0020380B0020D8050020D00400200E
:10444000D00A0020CDCCCC3DD4050020CC0A0020E1
:10445000C60A0020C80A0020C40A0020C50A00209D
:1044600000006E4080B594B000AF07F12003302209
:10447000002118460BF0E6F907F10C0300221A6040
:104480005A609A60DA601A610023BB60274B1B6C8C
:10449000264A43F080531364244B1B6C03F0805373
:1044A000BB60BB6800237B60214B1B68204A43F440
:1044B000804313601E4B1B6803F480437B607B6862
:1044C00001233B624FF480337B620223BB634FF4D2
:1044D0008003FB6304233B6448237B640223BB64A7
:1044E0000423FB6407F12003184606F089FB03460A
:1044F000002B01D000F05EF80F23FB6002233B612C
:1045000000237B614FF48053BB610023FB6107F103
:104510000C030221184606F0EBFD0346002B01D0E8
:1045200000F048F800BF5037BD4680BD003802405B
:104530000070004080B483B000AF78607B681B6877
:10454000144A934206D1144B01221A60134B0122E4
:104550001A6018E07B681B68114A934203D1114B23
:1045600001221A700FE07B681B680F4A93420AD140
:104570000E4B01221A700E4B1B68DA680C4B1B683D
:1045800022F02002DA6000BF0C37BD465DF8047BE4
:10459000704700BF00480040D0040020CC0A002033
:1045A000004C0040C40A002000440040C60A00201D
:1045B000680C002080B400AF72B600BF00BFFDE7FA
:1045C00080B58CB000AF0346FB710B46BB80134631
:1045D0007B80FB79012B0AD1A94B1B6840F6B832CE
:1045E0005A63A84B1B6840F6B8321A64F4E3FB79AF
:1045F000022B25D1A44B3B617B88C3F5805307EE8A
:10460000903AB8EEE77AD7ED047A67EE277A9FED15
:104610009F7A77EE877AC7ED037A994B1B68D7EDBF
:10462000037AFCEEE77A17EE902A5A63954B1B68E3
:10463000D7ED037AFCEEE77A17EE902A1A64CBE303
:10464000FB79032B38D1904B3B628F4BFB61BB88CE
:10465000C3F5805307EE903AB8EEE77AD7ED077AC4
:1046600067EE277A9FED8A7A77EE677AC7ED067A4A
:10467000BB88C3F5805307EE903AB8EEE77AD7EDE2
:10468000087A67EE277A9FED817A77EE877AC7ED11
:10469000057A7B4B1B68D7ED067AFCEEE77A17EEBE
:1046A000902A5A63774B1B68D7ED057AFCEEE77AC0
:1046B00017EE902A1A648FE3FB79042B40F0F88000
:1046C000BB8807EE903AF8EE677A7B8807EE103ADF
:1046D000B8EE477AF0EE470AB0EE670A01F0E8FE5E
:1046E00087ED090AD7ED097AB7EE007AF4EEC77ABA
:1046F000F1EE10FA2EDDBB88C3F500631846FBF718
:1047000021FF4FF00002634BFCF7B0F802460B4666
:10471000104619464FF000025F4BFBF77DFF024643
:104720000B461046194652A3D3E90023FBF7BEFD02
:1047300002460B46104619464FF00002574BFBF756
:10474000B5FD02460B4610461946FCF75DFA0346D6
:10475000BB622DE07B88C3F500631846FBF7F2FED1
:104760004FF000024B4BFCF781F802460B46104617
:1047700019464FF00002484BFBF74EFF02460B462E
:10478000104619463AA3D3E90023FBF78FFD0246F2
:104790000B461046194638A3D3E90023FBF786FDE4
:1047A00002460B4610461946FCF72EFA0346BB623A
:1047B000D7ED097A9FED3A7A67EE877A9FED397ADD
:1047C00077EE877AFCEEE77A17EE903A9BB2A3F584
:1047D000966307EE903AF8EEE77AC7ED0B7AD7EDDD
:1047E0000B7A9FED2B7AF4EEC77AF1EE10FA01DD29
:1047F0002D4BFB62D7ED0B7A9FED247AF4EEC77A4E
:10480000F1EE10FA01D5294BFB62D7ED0A7A9FED44
:10481000207AF4EEC77AF1EE10FA01DD224BBB628A
:10482000D7ED0A7A9FED197AF4EEC77AF1EE10FA15
:1048300001D51E4BBB6297ED0B7AD7ED0A7AB4EE29
:10484000E77AF1EE10FA00F3C4820D4B1B68D7ED46
:104850000B7AFCEEE77A17EE902A5A63094B1B6835
:10486000D7ED0A7AFCEEE77A17EE902A1A64B3E2E3
:10487000000000000070A7400000000000C072406F
:10488000F00A0020380B00200000163F0000E14431
:10489000004083450000A04000408F400000894058
:1048A00000007A4400803B45004083450000E1441D
:1048B000FB79052B40F0CE80BB8807EE903AF8EEEE
:1048C000677A7B8807EE103AB8EE477AF0EE470A2F
:1048D000B0EE670A01F0ECFD87ED090AD7ED097A21
:1048E000BFEE007AF4EEC77AF1EE10FA2ED5BB884F
:1048F000A3F500631846FBF725FE4FF00002BE4B00
:10490000FBF7B4FF02460B46104619464FF0000273
:10491000BA4BFBF781FE02460B4610461946B4A37C
:10492000D3E90023FBF7C2FC02460B4610461946AA
:104930004FF00002B24BFBF7B9FC02460B461046A3
:104940001946FCF761F90346FB622DE07B88C3F54D
:1049500000631846FBF7F6FD4FF00002A64BFBF78D
:1049600085FF02460B46104619464FF00002A34B46
:10497000FBF752FE02460B46104619469CA3D3E9AC
:104980000023FBF793FC02460B46104619464FF0F6
:1049900000029B4BFBF78AFC02460B461046194669
:1049A000FCF732F90346FB62D7ED097A9FED957A61
:1049B00067EE877A9FED947A77EE677AFCEEE77A76
:1049C00017EE903A9BB2A3F5966307EE903AF8EE95
:1049D000E77AC7ED0A7AD7ED0B7A9FED8C7AF4EE81
:1049E000C77AF1EE10FA01DD894BFB62D7ED0B7A45
:1049F0009FED887AF4EEC77AF1EE10FA01D5864B76
:104A0000FB62D7ED0A7A9FED817AF4EEC77AF1EE78
:104A100010FA01DD7E4BBB62D7ED0A7A9FED7D7AFD
:104A2000F4EEC77AF1EE10FA01D57B4BBB627B4BFB
:104A30001B68D7ED0B7AFCEEE77A17EE902A5A63E3
:104A4000774B1B68D7ED0A7AFCEEE77A17EE902ACF
:104A50001A64C1E1FB79062B40F0E480BB8807EEC5
:104A6000903AF8EE677A7B8807EE103AB8EE477A0C
:104A7000F0EE470AB0EE670A01F01AFD87ED090A69
:104A8000D7ED097ABFEE007AF4EEC77AF1EE10FAAC
:104A90002CD5BB88C3F500631846FBF753FD4FF0D8
:104AA0000002554BFBF7E2FE02460B461046194644
:104AB0004FF00002514BFBF7AFFD02460B464CA1F5
:104AC000D1E90001FBF7F0FB02460B461046194600
:104AD0004FF000024A4BFBF7E7FB02460B4610463D
:104AE0001946FCF791F80346FB622BE07B88C3F57F
:104AF00000631846FBF726FD4FF000023E4BFBF724
:104B0000B5FE02460B46104619464FF000023B4BDD
:104B1000FBF782FD02460B4635A1D1E90001FBF708
:104B2000C3FB02460B46104619464FF00002344BB9
:104B3000FBF7BAFB02460B4610461946FCF764F831
:104B40000346FB62D7ED097A9FED2E7A67EE877AEE
:104B50009FED2D7A77EE877AFCEEE77A17EE903AA2
:104B60009BB203F5966307EE903AF8EEE77AC7ED4D
:104B70000A7AD7ED0B7A9FED257AF4EEC77AF1EE3B
:104B800010FA01DD224BFB62D7ED0B7A9FED217A03
:104B9000F4EEC77AF1EE10FA01D51F4BFB62D7EDA8
:104BA0000A7A9FED1A7AF4EEC77AF1EE10FA01DD77
:104BB000174BBB62D7ED0A7A9FED167AF4EEC77AEF
:104BC000F1EE10FA01D5144BBB62144B1B68D7ED04
:104BD0000B7AFCEEE77A17EE902A5A63104B1B68AB
:104BE000D7ED0A7AFCEEE77A17EE902A1A64F3E022
:104BF000000000000070A7400000A04000408F406F
:104C000000C0924000007A4400803B45004083454C
:104C1000004083450000E1440000E144F00A002028
:104C2000380B0020FB79072B40F0D680BB8807EEBD
:104C3000903AF8EE677A7B8807EE103AB8EE477A3A
:104C4000F0EE470AB0EE670A01F032FC87ED090A80
:104C5000D7ED097AB7EE007AF4EEC77AF1EE10FAE2
:104C60002CDD7B88C3F500631846FBF76BFC4FF027
:104C700000025F4BFBF7FAFD02460B461046194651
:104C80004FF000025B4BFBF7C7FC02460B4654A1FA
:104C9000D1E90001FBF708FB02460B461046194616
:104CA00051A3D3E90023FBF7FFFA02460B46104657
:104CB0001946FBF7A9FF0346BB622BE0BB88A3F5AF
:104CC00000631846FBF73EFC4FF00002484BFBF731
:104CD000CDFD02460B46104619464FF00002454BEB
:104CE000FBF79AFC02460B463DA1D1E90001FBF718
:104CF000DBFA02460B46104619464FF000023E4BC7
:104D0000FBF7D2FA02460B4610461946FBF77CFF2A
:104D10000346BB62D7ED097A9FED387A67EE877A52
:104D20009FED377A77EE677AFCEEE77A17EE903AE6
:104D30009BB203F5C86307EE903AF8EEE77AC7ED49
:104D40000B7AD7ED0B7A9FED2F7AF4EEC77AF1EE5E
:104D500010FA01DD2C4BFB62D7ED0B7A9FED2B7A1D
:104D6000F4EEC77AF1EE10FA01D5294BFB62D7EDCC
:104D70000A7A9FED247AF4EEC77AF1EE10FA01DD9B
:104D8000214BBB62D7ED0A7A9FED207AF4EEC77A09
:104D9000F1EE10FA01D51E4BBB6297ED0A7AD7ED02
:104DA0000B7AB4EEE77AF1EE10FA14DC194B1B68BB
:104DB000D7ED0B7AFCEEE77A17EE902A5A63164B82
:104DC0001B68D7ED0A7AFCEEE77A17EE902A1A6490
:104DD00002E000BF00E000BF3037BD4680BD00BF2D
:104DE000000000000070A7400000000000E89C40A8
:104DF0000000A04000408F400000594000007A446D
:104E000000803B4500408345004083450000E1446D
:104E10000000E144F00A0020380B002000000000F0
:104E200080B58CB000AF0346FB710B46BB801346C8
:104E30007B80FB79013B062B00F2FF8301A252F835
:104E400023F000BF614E0008774E0008C34E0008F3
:104E5000354F0008E5500008C552000859540008B5
:104E6000C94B1B6840F6B8325A63C84B1B6840F602
:104E7000B8321A64E2E3C64B3B617B88C3F58053CA
:104E800007EE903AB8EEE77AD7ED047A67EE277A24
:104E90009FEDC07A77EE877AC7ED037ABA4B1B682D
:104EA000D7ED037AFCEEE77A17EE902A5A63B74BF8
:104EB0001B68D7ED037AFCEEE77A17EE902A1A64A6
:104EC000BCE3B34B3B62B24BFB61BB88C3F5805381
:104ED00007EE903AB8EEE77AD7ED077A67EE277AD1
:104EE0009FEDAD7A77EE677AC7ED067ABB88C3F59A
:104EF000805307EE903AB8EEE77AD7ED087A67EE7E
:104F0000277A9FEDA47A77EE877AC7ED057A9E4BD4
:104F10001B68D7ED067AFCEEE77A17EE902A5A6303
:104F20009A4B1B68D7ED057AFCEEE77A17EE902ACC
:104F30001A6483E3BB8807EE903AF8EE677A7B88C1
:104F400007EE103AB8EE477AF0EE470AB0EE670A7D
:104F500001F0AEFA87ED090AD7ED097AB7EE007ACB
:104F6000F4EEC77AF1EE10FA2EDDBB88C3F50063CC
:104F70001846FBF7E7FA4FF00002884BFBF776FC88
:104F800002460B46104619464FF00002844BFBF7D1
:104F900043FB02460B461046194677A3D3E900238C
:104FA000FBF784F902460B46104619464FF0000203
:104FB0007C4BFBF77BF902460B4610461946FBF784
:104FC00023FE0346BB622DE07B88C3F500631846D1
:104FD000FBF7B8FA4FF00002704BFBF747FC0246B4
:104FE0000B46104619464FF000026D4BFBF714FBC1
:104FF00002460B46104619465FA3D3E90023FBF790
:1050000055F902460B46104619465DA3D3E9002325
:10501000FBF74CF902460B4610461946FBF7F4FD28
:105020000346BB62D7ED097A9FED5F7A67EE877A18
:105030009FED5E7A77EE877AFCEEE77A17EE903A8C
:105040009BB2A3F5966307EE903AF8EEE77AC7EDC8
:105050000B7AD7ED0B7A9FED507AF4EEC77AF1EE2A
:1050600010FA01DD524BFB62D7ED0B7A9FED497AC6
:10507000F4EEC77AF1EE10FA01D54E4BFB62D7ED94
:105080000A7A9FED457AF4EEC77AF1EE10FA01DD67
:10509000474BBB62D7ED0A7A9FED3E7AF4EEC77AB2
:1050A000F1EE10FA01D5434BBB6297ED0B7AD7EDC9
:1050B0000A7AB4EEE77AF1EE10FA00F3C082324BCE
:1050C0001B68D7ED0B7AFCEEE77A17EE902A5A634D
:1050D0002E4B1B68D7ED0A7AFCEEE77A17EE902A82
:1050E0001A64ABE2BB8807EE903AF8EE677A7B88E9
:1050F00007EE103AB8EE477AF0EE470AB0EE670ACC
:1051000001F0D6F987ED090AD7ED097ABFEE007AEA
:10511000F4EEC77AF1EE10FA50D5BB88A3F5006320
:105120001846FBF70FFA4FF000021C4BFBF79EFBF3
:1051300002460B46104619464FF00002184BFBF78B
:105140006BFA02460B46104619460BA3D3E900231F
:10515000FBF7ACF802460B46104619464FF000022A
:10516000154BFBF7A3F802460B4610461946FBF712
:105170004BFD0346FB624FE0000000000070A740BB
:105180000000000000C07240F00A0020380B002030
:105190000000163F0000E144004083450000A040AD
:1051A00000408F400000894000007A4400803B4569
:1051B000004083450000E14400C092407B88C3F575
:1051C00000631846FBF7BEF94FF00002CA4BFBF72D
:1051D0004DFB02460B46104619464FF00002C74BE6
:1051E000FBF71AFA02460B4610461946BEA3D3E94E
:1051F0000023FBF75BF802460B46104619464FF0BA
:105200000002BF4BFBF752F802460B461046194608
:10521000FBF7FAFC0346FB62D7ED097A9FEDB97AFA
:1052200067EE877A9FEDB87A77EE677AFCEEE77AD9
:1052300017EE903A9BB2A3F5966307EE903AF8EE1C
:10524000E77AC7ED0A7AD7ED0B7A9FEDB07AF4EEE4
:10525000C77AF1EE10FA01DDAD4BFB62D7ED0B7AA8
:105260009FEDAC7AF4EEC77AF1EE10FA01D5AA4BB5
:10527000FB62D7ED0A7A9FEDA57AF4EEC77AF1EEDC
:1052800010FA01DDA24BBB62D7ED0A7A9FEDA17A3D
:10529000F4EEC77AF1EE10FA01D59F4BBB629F4B3B
:1052A0001B68D7ED0B7AFCEEE77A17EE902A5A636B
:1052B0009B4B1B68D7ED0A7AFCEEE77A17EE902A33
:1052C0001A64BBE1BB8807EE903AF8EE677A7B88F8
:1052D00007EE103AB8EE477AF0EE470AB0EE670AEA
:1052E00001F0E6F887ED090AD7ED097ABFEE007AFA
:1052F000F4EEC77AF1EE10FA2CD5BB88C3F5006343
:105300001846FBF71FF94FF000027B4BFBF7AEFA94
:1053100002460B46104619464FF00002774BFBF74A
:105320007BF902460B4670A1D1E90001FAF7BCFFF8
:1053300002460B46104619464FF00002704BFAF732
:10534000B3FF02460B4610461946FBF75DFC0346C9
:10535000FB622BE07B88C3F500631846FBF7F2F88D
:105360004FF00002644BFBF781FA02460B461046F1
:1053700019464FF00002614BFBF74EF902460B460F
:1053800059A1D1E90001FAF78FFF02460B461046FA
:1053900019464FF000025A4BFAF786FF02460B46B9
:1053A00010461946FBF730FC0346FB62D7ED097A3D
:1053B0009FED547A67EE877A9FED537A77EE877A7E
:1053C000FCEEE77A17EE903A9BB203F5966307EE90
:1053D000903AF8EEE77AC7ED0A7AD7ED0B7A9FEDAF
:1053E0004B7AF4EEC77AF1EE10FA01DD484BFB621E
:1053F000D7ED0B7A9FED477AF4EEC77AF1EE10FA0B
:1054000001D5454BFB62D7ED0A7A9FED407AF4EE69
:10541000C77AF1EE10FA01DD3D4BBB62D7ED0A7A97
:105420009FED3C7AF4EEC77AF1EE10FA01D53A4BD3
:10543000BB623A4B1B68D7ED0B7AFCEEE77A17EEAE
:10544000902A5A63364B1B68D7ED0A7AFCEEE77A4E
:1054500017EE902A1A64F1E0BB8807EE903AF8EE56
:10546000677A7B8807EE103AB8EE477AF0EE470A83
:10547000B0EE670A01F01CF887ED090AD7ED097A4A
:10548000B7EE007AF4EEC77AF1EE10FA4ADD7B88C7
:10549000C3F500631846FBF755F84FF00002164BB2
:1054A000FBF7E4F902460B46104619464FF000029E
:1054B000124BFBF7B1F802460B460BA1D1E90001F4
:1054C000FAF7F2FE02460B461046194608A3D3E946
:1054D0000023FAF7E9FE02460B4610461946FBF791
:1054E00093FB0346BB6249E0000000000070A74048
:1054F0000000000000E89C400000A04000408F40F9
:1055000000C0924000007A4400803B450040834543
:10551000004083450000E1440000E144F00A00201F
:10552000380B0020BB88A3F500631846FBF70AF888
:105530004FF00002484BFBF799F902460B46104624
:1055400019464FF00002454BFBF766F802460B4642
:105550003FA1D1E90001FAF7A7FE02460B4610462B
:1055600019464FF000023E4BFAF79EFE02460B46EC
:1055700010461946FBF748FB0346BB62D7ED097A94
:105580009FED387A67EE877A9FED377A77EE677A04
:10559000FCEEE77A17EE903A9BB203F5C86307EE8C
:1055A000903AF8EEE77AC7ED0B7AD7ED0B7A9FEDDC
:1055B0002F7AF4EEC77AF1EE10FA01DD2C4BFB6284
:1055C000D7ED0B7A9FED2B7AF4EEC77AF1EE10FA55
:1055D00001D5294BFB62D7ED0A7A9FED247AF4EED0
:1055E000C77AF1EE10FA01DD214BBB62D7ED0A7AE2
:1055F0009FED207AF4EEC77AF1EE10FA01D51E4B3A
:10560000BB6297ED0A7AD7ED0B7AB4EEE77AF1EE4A
:1056100010FA16DC194B1B68D7ED0B7AFCEEE77A13
:1056200017EE902A5A63164B1B68D7ED0A7AFCEEE8
:10563000E77A17EE902A1A6400E000BF02E000BF8C
:1056400000E000BF3037BD4680BD00BFAFF3008033
:10565000000000000070A7400000A04000408F4004
:105660000000594000007A4400803B4500408345DB
:10567000004083450000E1440000E144F00A0020BE
:10568000380B002080B58CB000AF0346FB730B468F
:10569000BB8113467B810823FB76FB7B012B14D156
:1056A0000023FB6107E09C4AFB69134400221A7047
:1056B000FB690133FB61FB69072BF4DDFB7E1946B7
:1056C0009548FDF701FF00F0E1BEFB7B022B65D1A1
:1056D0007B89A3F58053002BB8BF5B42A3F503631E
:1056E00007EE903AF8EEE77AC7ED097A786AFAF7AA
:1056F0003BFF02460B46894809F010FFD7ED097AB7
:105700009FED887AF4EEC77AF1EE10FA01DD844B52
:105710007B62D7ED097AF5EEC07AF1EE10FA02D588
:105720004FF000037B62D7ED097AFDEEE77A17EEC2
:10573000903A1B12DAB2784B1A70D7ED097AFDEE67
:10574000E77AC7ED017A3A79734B5A70D7ED097A47
:10575000FDEEE77A17EE903A1B12DAB26E4B9A70B2
:10576000D7ED097AFDEEE77AC7ED017A3A796A4B0F
:10577000DA70694B1B7823F00803DAB2664B1A70B3
:10578000654B9B7823F00803DAB2634B9A70FB7E7B
:1057900019466148FDF798FE00F078BEFB7B032BAD
:1057A00058D17B89A3F5036307EE903AF8EEE77AC8
:1057B000C7ED097AD7ED097A9FED5A7AF4EEC77AE8
:1057C000F1EE10FA01DD564B7B62D7ED097AF5EE6A
:1057D000C07AF1EE10FA02D54FF000037B62D7EDEC
:1057E000097AFDEEE77A17EE903A1B12DAB24A4BCD
:1057F0001A70D7ED097AFDEEE77AC7ED017A3A79AA
:10580000454B5A70D7ED097AFDEEE77A17EE903ADC
:105810001B12DAB2404B9A70D7ED097AFDEEE77AA7
:10582000C7ED017A3A793C4BDA703B4B1B7843F079
:105830000803DAB2384B1A70374B9B7843F00803F1
:10584000DAB2354B9A70FB7E19463348FDF73CFEC1
:1058500000F01CBEFB7B042B66D1BB89A3F58053F3
:10586000002BB8BF5B42A3F5036307EE903AF8EE56
:10587000E77AC7ED087AD7ED097A9FED2A7AF4EE38
:10588000C77AF1EE10FA01DD254B3B62D7ED097ABC
:10589000F5EEC07AF1EE10FA02D54FF000033B624C
:1058A000D7ED087AFDEEE77A17EE903A1B12DAB2DE
:1058B000194B1A70D7ED087AFDEEE77AC7ED017A39
:1058C0003A79154B5A70D7ED087AFDEEE77A17EE64
:1058D000903A1B12DAB2104B9A70D7ED087AFDEEAF
:1058E000E77AC7ED017A3A790B4BDA700A4B1B78ED
:1058F00043F00803DAB2084B1A70074B9B7823F089
:105900000803DAB2044B9A70FB7E19460248FDF791
:10591000DBFD00F0BBBD00BFD40A002068580108C1
:105920000000FA440000FA44FB7B052B68D1BB89D8
:10593000A3F5036307EE903AF8EEE77AC7ED087A2D
:10594000D7ED097A1FED097AF4EEC77AF1EE10FA75
:1059500001DDBD4B3B62D7ED097AF5EEC07AF1EE81
:1059600010FA02D54FF000033B62D7ED087AFDEE46
:10597000E77A17EE903A1B12DAB2B44B1A70D7EDF1
:10598000087AFDEEE77AC7ED017A3A79AF4B5A70A3
:10599000D7ED087AFDEEE77A17EE903A1B12DAB2ED
:1059A000AA4B9A70D7ED087AFDEEE77AC7ED017A37
:1059B0003A79A64BDA70386AFAF7D6FD02460B46FA
:1059C000A34809F0ABFD386AFAF7CEFD02460B4654
:1059D000A04809F0A3FD9D4B1B7823F00803DAB221
:1059E0009A4B1A70994B9B7843F00803DAB2974BA5
:1059F0009A70FB7E19469548FDF766FD00F046BD9E
:105A0000FB7B062B40F02A81BB89A3F58053002B3A
:105A1000B8BF5B42C3F580534FF4FA6202FB03F355
:105A2000002B01DA03F6FF731B135B4203F5FA63E5
:105A300007EE903AF8EEE77AC7ED0A7A7B89A3F58C
:105A40008053002BB8BF5B42C3F5805307EE903AFA
:105A5000F8EEE77AC7ED0B7AD7ED0B7A9FED7E7AF9
:105A6000F4EEC77AF1EE10FA01DD774BFB62D7ED69
:105A70000B7AF5EEC07AF1EE10FA02D54FF0000382
:105A8000FB62D7ED0A7A9FED747AF4EEC77AF1EEF5
:105A900010FA01DD6C4BBB62D7ED0A7AF5EEC07AE5
:105AA000F1EE10FA02D54FF00003BB62D7ED0B7A8E
:105AB000FDEEE77A17EE903A1B12DAB2634B1A70DA
:105AC000D7ED0B7AFDEEE77AC7ED017A3A795F4BB5
:105AD0005A70D7ED0A7AFDEEE77A17EE903A1B126C
